:020000040000FA
:1000000008020010CD000000D1000000D300000065
:10001000D5000000D7000000D9000000000000005B
:10002000000000000000000000000000DB000000F5
:10003000DD00000000000000DF000000E100000023
:10004000E3000000E3000000E3000000E300000024
:10005000E3000000E3000000E3000000E300000014
:10006000E3000000E3000000E3000000E300000004
:10007000E3000000E3000000E3000000E3000000F4
:10008000E3000000E3000000E3000000E3000000E4
:10009000E3000000E3000000E3000000E3000000D4
:1000A000E3000000E3000000E3000000E3000000C4
:1000B000E3000000E3000000E3000000E3000000B4
:1000C000E3000000E3000000E300000008480047F0
:1000D000FEE7FEE7FEE7FEE7FEE7FEE7FEE7FEE7F8
:1000E000FEE7FEE703480449024A044B704700005C
:1000F00001010000080000100802001008000010B4
:100100000B484FF0040150F8042B50F8043B9A427E
:1001100000D81A4601390129F7D1064C22600000A7
:10012000030000004100000005000000090000007D
:10013000200100000000001000000000000000008E
:1001400000000000000000000000000000000000AF
:10015000000000000000000000000000000000009F
:10016000000000000000000000000000000000008F
:10017000000000000000000000000000000000007F
:10018000000000000000000000000000000000006F
:10019000000000000000000000000000000000005F
:1001A000000000000000000000000000000000004F
:1001B000000000000000000000000000000000003F
:1001C000000000000000000000000000000000002F
:1001D000000000000000000000000000000000001F
:1001E000000000000000000000000000000000000F
:1001F00000000000000000000000000000000000FF
:1002000000000000000000000000000000000000EE
:1002100000000000000000000000000000000000DE
:1002200000000000000000000000000000000000CE
:1002300000000000000000000000000000000000BE
:1002400000000000000000000000000000000000AE
:10025000000000000000000000000000000000009E
:10026000000000000000000000000000000000008E
:10027000000000000000000000000000000000007E
:10028000000000000000000000000000000000006E
:10029000000000000000000000000000000000005E
:1002A000000000000000000000000000000000004E
:1002B000000000000000000000000000000000003E
:1002C000000000000000000000000000000000002E
:1002D000000000000000000000000000000000001E
:1002E000000000000000000000000000000000000E
:1002F000000000000000000000000000FFFFFFFF02
:0403000000000000F9
:04000005000000CD2A
:00000001FF
