:020000040000FA
:1000000060020010790100008101000083010000FE
:100010008501000087010000890100000000000048
:100020000000000000000000000000008B01000044
:100030008D010000000000008F0100009101000010
:100040009301000093010000930100009301000060
:100050009301000093010000930100009301000050
:100060009301000093010000930100009301000040
:100070009301000093010000930100009301000030
:1000800093010000930100003102000051020000C2
:100090009301000093010000930100009301000010
:1000A0009301000093010000930100009301000000
:1000B00093010000930100009301000093010000F0
:1000C00093010000930100009301000000F002F88A
:1000D00000F042F814A696E8000CB244B344DA45A6
:1000E00001D100F039F8BAE80F000FA696E8300009
:1000F000A5EB040504EB0607AAEB0704A7F101072B
:100100004FEA15154FEA3414A4F10104AC4201D3AF
:1001100000F022F813F0010F18BFFB1A43F001039F
:1001200000F001F8DBE718477801000088010000C3
:10013000704700000023002400250026103A28BF45
:1001400078C1FBD8520728BF30C148BF0B60704749
:100150001FB51FBD10B510BD00F02FF81146FFF7F9
:10016000F7FF00F08FF900F04DF803B4FFF7F2FF4E
:1001700003BC00F055F800000948804709480047D3
:10018000FEE7FEE7FEE7FEE7FEE7FEE7FEE7FEE747
:10019000FEE7FEE704480549034A054B70470000A7
:1001A00001030000CD00000060000010600200109C
:1001B00060000010704770477047754600F02CF8DB
:1001C000AE4605006946534620F00700854618B044
:1001D00020B5FFF7DFFFBDE820404FF000064FF0ED
:1001E00000074FF000084FF0000BAC46ACE8C00928
:1001F000ACE8C009ACE8C009ACE8C00921F00701CF
:100200008D46704710B50446AFF300802046BDE828
:100210001040FFF7AABF0000004870470000001020
:1002200001491820ABBEFEE726000200704700001F
:100230004CF24011C4F20F01012008604CF254014D
:10024000C2F20901086880F00400086070470000ED
:100250004CF24011C4F20F01022008604CF254012C
:10026000C2F20901086880F00800086070470000C9
:1002700081B08DF803009DF9030000280ED4FFE73C
:100280009DF9031001F01F02012090404A094EF22F
:100290000011CEF2000141F82200FFE701B07047E3
:1002A000EC040000000000106002000034010000B7
:1002B000000000000000000000000000000000003E
:1002C000000000000000000000000000000000002E
:1002D000000000000000000000000000000000001E
:1002E000000000000000000000000000000000000E
:1002F000000000000000000000000000FFFFFFFF02
:100300004CF2A010C4F20F002021016000688006AA
:1003100000280CD5FFE7FFE74CF2A010C4F20F0055
:1003200000684006002801D4FFE7F5E7FFE74CF23C
:100330000411C4F20F01032008604CF2A811C4F2AA
:100340000F01002008604CF2AC11C4F20F010860EC
:100350004CF20C10C4F20F00012303604CF2840134
:10036000C4F20F016320C0F2050008604CF28C015A
:10037000C4F20F01AA220A60552008604CF2800CDA
:10038000C4F20F0CCCF800300A600860FFE74CF2B2
:100390008800C4F20F0000684001002801D4FFE784
:1003A000F5E74CF28001C4F20F01032008604CF223
:1003B0008C01C4F20F01AA20086055200860FFE7F5
:1003C0004CF28800C4F20F00006800F04070B0F1F9
:1003D000407F01D0FFE7F3E74CF2A401C4F20F0124
:1003E000232008604CF2AC01C4F20F01AA220A607B
:1003F000552008604CF2A00CC4F20F0C0123CCF87D
:1004000000300A600860FFE74CF2A800C4F20F0059
:1004100000684005002801D4FFE7F5E74CF2A00191
:10042000C4F20F01032008604CF2AC01C4F20F01CA
:10043000AA20086055200860FFE74CF2A800C4F22B
:100440000F00006800F44070B0F5407F01D0FFE776
:10045000F3E74CF2C401C4F20F0148F2DE70C0F2BF
:10046000284008604CF2C811C4F20F010020086057
:100470004CF20001C4F20F010868042262F30F304D
:100480000860704780B582B0002000900190FFF7AF
:1004900037FF00984CF24012C4F20F0203211160A2
:1004A0004CF21003C4F202034FF4A0021A604CF2A3
:1004B0004812C4F20F0211604CF24C12C4F20F0247
:1004C000012111604CF24002C2F209020C211160BC
:1004D0004CF25401C2F2090108601220FFF7C8FE75
:0C04E0001320FFF7C5FEFFE7FEE7000059
:04000005000001797D
:00000001FF
